:10000000FCFF022071290000292900002929000095
:100010002929000029290000292900002929000098
:100020002929000029290000292900002929000088
:100030002929000029290000292900002929000078
:100040002929000029290000292900002929000068
:100050002929000029290000292900002929000058
:100060002929000029290000292900002929000048
:100070002929000029290000292900002929000038
:100080002929000029290000292900002929000028
:100090002929000029290000292900002929000018
:1000A0002929000029290000292900002929000008
:1000B00029290000292900002929000029290000F8
:1000C00029290000292900002929000029290000E8
:1000D00029290000292900002929000029290000D8
:1000E00029290000292900002929000029290000C8
:1000F00029290000292900002929000029290000B8
:1001000029290000292900002929000029290000A7
:100110002929000029290000292900002929000097
:100120002929000029290000292900002929000087
:100130002929000029290000292900002929000077
:100140002929000029290000292900002929000067
:100150002929000029290000292900002929000057
:100160002929000029290000292900002929000047
:100170002929000029290000292900002929000037
:100180002929000029290000292900002929000027
:080190002929000029290000C3
:1029700081B000F011F8FFF7DBFF00F0CBFCFFF7B0
:10298000EDFF00F079FCFFF74DFFFFF773FFFFF756
:062990000FFFFCE7FEE76B
:10279C0081B01CF8019B0BF8019BBBEB0A0FF8D125
:0427AC0001B07047C1
:1028EC0081B04FF000094FF0000CBDEB0A0F04DC77
:1028FC00BDEB0B0F01DBD446EA464BF8049BBBEB5C
:10290C000A0FFAD1BCEB0A0F05DDE246D9F800B08C
:0A291C000BF1040BF1E701B0704766
:1028240081B0CDF800E0012207210020FFF714FE5B
:10283400002201210020FFF70FFE002202210020C8
:10284400FFF70AFE094801460020FFF739FE40F66B
:10285400FE07C0F23D0700BF00BF7F1EFDD100BFD1
:1028640000BF00BFDDF800E001B070477432000023
:10245C0081B0CDF800E05FFA81F85FFA82F91DE0F7
:10246C005FFA89F15FFA88F0FFF7F8FA1FE05FFA7C
:10247C0089F15FFA88F0FFF7D5FB18E05FFA89F174
:10248C005FFA88F0FFF7CCFC11E05FFA89F15FFA94
:10249C0088F0FFF7CBF90AE0012008E00028DFD034
:1024AC000128E4D00228E9D00328EED0F4E7DDF8C7
:0624BC0000E001B07047D2
:101A680081B0CDF800E0A9E0012905D14FF00401CB
:101A78006548FFF79FFD04E04FF004016348FFF756
:101A88005DFDBBE0012905D14FF400615E48FFF719
:101A980091FD04E04FF400615C48FFF74FFDADE0B5
:101AA800012905D14FF010015948FFF783FD04E0E3
:101AB8004FF010015748FFF741FD9FE0012905D17C
:101AC8004FF020015248FFF775FD04E04FF0200168
:101AD8005048FFF733FD91E0012905D14FF080010F
:101AE8004B48FFF767FD04E04FF080014948FFF7D6
:101AF80025FD83E0012905D14FF040014448FFF757
:101B080059FD04E04FF040014248FFF717FD75E02A
:101B1800012905D14FF480613F48FFF74BFD04E0F0
:101B28004FF480613D48FFF709FD67E0012905D1C1
:101B38004FF400513448FFF73DFD04E04FF40051E5
:101B48003248FFF7FBFC59E0012905D14FF00401A9
:101B58003348FFF72FFD04E04FF004013148FFF749
:101B6800EDFC4BE0012905D14FF008012C48FFF7A7
:101B780021FD04E04FF008012A48FFF7DFFC3DE0B3
:101B8800012905D14FF480712548FFF713FD04E0C2
:101B98004FF480712348FFF7D1FC2FE0012905D1CC
:101BA8004FF400711E48FFF705FD04E04FF4007183
:101BB8001C48FFF7C3FC21E0012020E000283FF487
:101BC80053AF01283FF45EAF02283FF469AF032802
:101BD8003FF474AF04283FF47FAF05283FF48AAF81
:101BE80006283FF495AF0728A0D00828ACD00928CC
:101BF800B8D00A28C4D00B28D0D0DDE70020DDF803
:101C080000E001B0704700BF50F00F4040F00F40B7
:101C180090F00F4080F00F4010F00F4000F00F40A0
:081C2800D0F00F40C0F00F40A6
:1015BC0081B0CDF800E0034AFFF732FEDDF800E021
:0815CC0001B0704704010200A8
:10122C0081B0CDF800E0FFF765FDDDF800E001B01E
:02123C007047F9
:100D000083B0CDF800E006460C4615463046FFF7A6
:100D10000DFC40F2FF1306EA03008009002622467C
:100D20002946202E39D24FF0010303FA06F402EAD5
:100D300004031F46A3422ED104031A4B1C19B3000F
:100D4000E51801952C68184B04EA03032B60174B38
:100D500001EA0304019B1B6843EA0404019B1C6035
:100D600001F48033B3F5803F15D08401104B1B197B
:100D70001433029301F400333BB1FC43029B1B6824
:100D800003EA0404029B1C6005E0029B1B6843EA23
:100D90000704029B1C60761CC3E7DDF800E003B08B
:100DA000704700BF009004400000FFFFFFFF0000FD
:040DB00000F00F4000
:10052C0081B040F2FF1100EA01018909084600F28E
:10053C0009024FF0010101FA02F20449096841EA8B
:10054C00020202490A6001B0704700BF38800440C3
:1015440081B0CDF800E0034AFFF76EFEDDF800E05D
:0815540001B07047040104001E
:101C300081B0CDF800E0A9E0012905D14FF00801FD
:101C40006548FFF7BBFC04E04FF008016348FFF76D
:101C500079FCBBE0012905D14FF400215E48FFF774
:101C6000ADFC04E04FF400215C48FFF76BFCADE0F5
:101C7000012905D14FF010015948FFF79FFC04E0FE
:101C80004FF010015748FFF75DFC9FE0012905D197
:101C90004FF020015248FFF791FC04E04FF0200183
:101CA0005048FFF74FFC91E0012905D14FF080012A
:101CB0004B48FFF783FC04E04FF080014948FFF7F1
:101CC00041FC83E0012905D14FF040014448FFF772
:101CD00075FC04E04FF040014248FFF733FC75E02B
:101CE000012905D14FF004013F48FFF767FC04E0EC
:101CF0004FF004013D48FFF725FC67E0012905D1BD
:101D00004FF480713448FFF759FC04E04FF48071C0
:101D10003248FFF717FC59E0012905D14FF4803113
:101D20003148FFF74BFC04E04FF480312F48FFF7B8
:101D300009FC4BE0012905D14FF400312A48FFF797
:101D40003DFC04E04FF400312848FFF7FBFB3DE089
:101D5000012905D14FF480612348FFF72FFC04E0EF
:101D60004FF480612148FFF7EDFB2FE0012905D1F9
:101D70004FF400611C48FFF721FC04E04FF40061C0
:101D80001A48FFF7DFFB21E0012020E000283FF4A4
:101D900053AF01283FF45EAF02283FF469AF032838
:101DA0003FF474AF04283FF47FAF05283FF48AAFB7
:101DB00006283FF495AF0728A0D00828ACD0092802
:101DC000B8D00A28C4D00B28D0D0DDE70020DDF839
:101DD00000E001B0704700BF50F00F4040F00F40EE
:101DE000D0F00F40C0F00F4090F00F4080F00F4057
:101E2C0081B0CDF800E09CE0BBE0012905D14FF476
:101E3C0080715E48FFF7BCFB04E04FF480715C4896
:101E4C00FFF77AFBADE0012905D14FF4007157483B
:101E5C00FFF7AEFB04E04FF400715548FFF76CFB45
:101E6C009FE0012905D14FF400115248FFF7A0FB68
:101E7C0004E04FF400115048FFF75EFB91E001299C
:101E8C0005D14FF400014B48FFF792FB04E04FF4EF
:101E9C0000014948FFF750FB83E0012905D14FF4BD
:101EAC0080014448FFF784FB04E04FF48001424872
:101EBC00FFF742FB75E0012905D14FF020013F48A7
:101ECC00FFF776FB04E04FF020013D48FFF734FBB1
:101EDC0067E0012905D14FF002013848FFF768FB94
:101EEC0004E04FF002013648FFF726FB59E00129C8
:101EFC0005D14FF480312F48FFF75AFB04E04FF423
:101F0C0080312D48FFF718FB4BE0012905D14FF428
:101F1C0000312848FFF74CFB04E04FF40031264811
:101F2C00FFF70AFB3DE0012905D14FF4805125480C
:101F3C00FFF73EFB04E04FF480512348FFF7FCFA17
:101F4C002FE0012905D14FF400611E48FFF730FB4B
:101F5C0004E04FF400611C48FFF7EEFA21E0012089
:101F6C0020E000283FF460AF01283FF45EAF022868
:101F7C003FF469AF03283FF474AF04283FF47FAFFC
:101F8C0005283FF48AAF06283FF495AF0728A0D068
:101F9C000828ACD00928B8D00A28C4D00B28D0D037
:101FAC00DDE70020DDF800E001B0704790F00F4055
:101FBC0080F00F4050F00F4040F00F4010F10F40F8
:0C1FCC0000F10F4010F00F4000F00F403B
:1018380081B0CDF800E09CE0BBE0012905D14FF470
:1018480080515E48FFF7B6FE04E04FF480515C48D3
:10185800FFF774FEADE0012905D14FF40051574858
:10186800FFF7A8FE04E04FF400515548FFF766FE65
:101878009FE0012905D14FF400115248FFF79AFE65
:1018880004E04FF400115048FFF758FE91E0012999
:1018980005D14FF400014B48FFF78CFE04E04FF4EC
:1018A80000014948FFF74AFE83E0012905D14FF4BA
:1018B80080014448FFF77EFE04E04FF4800142486F
:1018C800FFF73CFE75E0012905D14FF040013F4884
:1018D800FFF770FE04E04FF040013D48FFF72EFE91
:1018E80067E0012905D14FF004013848FFF762FE8F
:1018F80004E04FF004013648FFF720FE59E00129C3
:1019080005D14FF480312F48FFF754FE04E04FF41F
:1019180080312D48FFF712FE4BE0012905D14FF425
:1019280000312848FFF746FE04E04FF4003126480E
:10193800FFF704FE3DE0012905D14FF48051254809
:10194800FFF738FE04E04FF480512348FFF7F6FD17
:101958002FE0012905D14FF400611E48FFF72AFE48
:1019680004E04FF400611C48FFF7E8FD21E0012086
:1019780020E000283FF460AF01283FF45EAF022862
:101988003FF469AF03283FF474AF04283FF47FAFF6
:1019980005283FF48AAF06283FF495AF0728A0D062
:1019A8000828ACD00928B8D00A28C4D00B28D0D031
:1019B800DDE70020DDF800E001B0704790F00F404F
:1019C80080F00F4050F00F4040F00F4010F10F40F2
:0C19D80000F10F4010F00F4000F00F4035
:1024C40081B0CDF800E011E00846FFF7A3F916E06B
:1024D4000846FFF741FF12E00846FFF72DFF0EE024
:1024E4000846FFF719FF0AE0012008E00028EBD0B6
:1024F4000128EDD00228EFD00328F1D0F4E7DDF86D
:0625040000E001B0704789
:1018180081B0CDF800E0016808460449FFF79AFE58
:101828000020DDF800E001B0704700BF5430000030
:10155C0081B0CDF800E00A4601460348FFF76AFE69
:0C156C00DDF800E001B0704700600640B0
:101240008AB0CDF800E0504B984210D100244F4BAB
:101250001C60012464B24E4B1C604E4C4E4B1C6013
:101260004E4C4F4B1C604F4C4F4B1C6026E04F4B7D
:10127000984210D100244E4B1C60012464B24D4BA7
:101280001C604D4C444B1C604C4C454B1C604C4C02
:10129000454B1C6012E04B4B98420FD100244A4B47
:1012A0001C60012464B2494B1C60494C3A4B1C60E1
:1012B000484C3B4B1C60484C3B4B1C6001910290DE
:1012C0001046FFF7C3FB06AB1846FFF781FA0298FA
:1012D00001994FF0FF39002740F200080022022A4E
:1012E00037D8B9F1000F34D001231BB203FA02F54D
:1012F0002DB20026322E28D2F400384B1B191B1DAC
:101300001B6805FB03F4079BB3FBF4F304939942BA
:1013100003D9049BCB1A039302E0049B5B1A03934B
:10132000039B0593039B4B450BD21746F4002B4BB5
:101330001B19D3F80080059C059B002B00D105E00C
:1013400000E04C46761CA146D4E74C46521CA14610
:10135000C5E7441CBB0143EA08032370851C012434
:101360002B7864F3C7132B70851C01242B7864F34E
:1013700086132B70851D01242B7864F345132B7085
:10138000DDF800E00AB07047006006405C00FF1F17
:1013900098069042FD0E00008000FF1F31110000F2
:1013A0008400FF1FB10F00008800FF1F007006407F
:1013B0006000FF1F9C069042CD0E000071100000DF
:1013C000D50F000000600E406400FF1F180590421A
:1013D000B50E000095100000150F0000C42E00008F
:1007D00081B0CDF800E00446FFF7ECFE40F2E831CE
:1007E00000FB01F3194909680A0F1849096801F06B
:1007F0007061090EC8B21549096801F47001090D4C
:10080000CDB21249096801F47021090CCEB2D1B2FF
:10081000491C09B259430F462360221D411C09B2ED
:10082000B7FBF1F1116004F20802691C09B2B7FBD1
:10083000F1F1116004F20C02711C09B2B7FBF1F185
:100840001160DDF800E001B0704700BF4480044053
:1005B40081B00248006801B0704700BF7000FF1F9F
:100A4C0081B0CDF800E040F2000C83464FEA8C01F7
:100A5C000BEB01010968B1F1FF3F12D00BF134012E
:100A6C004FEA8C03C91809680A460BEB03010968A5
:100A7C0008461146FFF76CFD0CF1010C1FFA8CFCBB
:0A0A8C00E4E7DDF800E001B0704778
:10055C0082B0CDF800E080464FEA581202F0070254
:10056C00914608F01F04A24693010D4AD3184FF090
:10057C000102A240019218460A46019900F050FE71
:10058C004FEA0933074AD3184FEA8A029C1808F439
:10059C00E06322681A432260DDF800E002B0704785
:0805AC0000F00F400090044034
:10235C0081B0CDF800E0016808460449FFF71AF98E
:10236C000020DDF800E001B0704700BFC030000075
:1015A00081B0CDF800E00A4601460348FFF748FE47
:0C15B000DDF800E001B07047007006405C
:10233C0081B0CDF800E0016808460449FFF7C8F801
:10234C000020DDF800E001B0704700BF2C31000028
:1014DC0081B0CDF800E00A4601460348FFF7AAFEAA
:0C14EC00DDF800E001B0704700600E4029
:10231C0081B0CDF800E0016808460449FFF7D8F811
:10232C000020DDF800E001B0704700BF2C31000048
:1028740081B0CDF800E0482217491848FFF706FF59
:1028840000230022032144F60030FFF73DFE01201F
:1028940040F00200FFF732FF40F6FE07C0F23D07AA
:1028A40000BF00BF7F1EFDD100BF00BF00BF0C48AA
:1028B400FFF712FF0B48FFF70FFF45F6FE17C0F2B4
:1028C400622700BF00BF7F1EFDD100BF00BF00BF55
:1028D400DDF800E001B07047683200009831000074
:0828E4000000FF1F1500FF1F9B
:1026900081B0CDF800E00546FFF74AFD0B4B1A70FC
:1026A00001240B4B1C700846FFF7EEFC2846FFF791
:1026B000D3FC0120074C2468A0470120064C246865
:1026C000A047DDF800E001B0704700BF5B00FF1FCE
:0C26D0005A00FF1FA000FF1F9000FF1F1A
:10239C0081B00249086001B0704700BF0808FE43D5
:10238C0081B00249086001B0704700BF2C08FE43C1
:10237C0081B00249086001B0704700BF1010FE43E5
:1022DC0081B00249086001B0704700BF1410FE4382
:1022CC0081B00249086001B0704700BF1C10FE438A
:1022BC0081B00249086001B0704700BF1810FE439E
:10230C0081B00249086001B0704700BF2800FE434D
:1022FC0081B00249086001B0704700BF3408FE434A
:1022EC0081B00249086001B0704700BF0818FE4376
:10244C0081B00249086001B0704700BF0C18FE4310
:10243C0081B00249086001B0704700BF2018FE430C
:10242C0081B00249086001B0704700BF2418FE4318
:1023CC0081B00249086001B0704700BF0C08FE43A1
:1023DC0081B00249086001B0704700BF4C08FE4351
:1023AC0081B00249086001B0704700BF1018FE43AD
:1023BC0081B00249086001B0704700BF1418FE4399
:10240C0081B00249086001B0704700BF1C18FE4340
:10241C0081B00249086001B0704700BF1818FE4334
:1023EC0081B00249086001B0704700BF0810FE437D
:1023FC0081B00249086001B0704700BF2008FE435D
:1021AC0081B00249086001B0704700BF4010FE4387
:10219C0081B00249086001B0704700BF4410FE4393
:1021CC0081B00249086001B0704700BF2810FE437F
:1021BC0081B00249086001B0704700BF2C10FE438B
:0621740081B001B07047CC
:1021640081B00249086001B0704700BF2010FE43EF
:10218C0081B00249086001B0704700BF2410FE43C3
:10217C0081B00249086001B0704700BF5408FE43AB
:10222C0081B00249086001B0704700BF5C08FE43F2
:10221C0081B00249086001B0704700BF5808FE4306
:10224C0081B00249086001B0704700BF1420FE4302
:10223C0081B00249086001B0704700BF0420FE4322
:1021EC0081B00249086001B0704700BF4008FE434F
:1021DC0081B00249086001B0704700BF4408FE435B
:10220C0081B00249086001B0704700BF3000FE4346
:1021FC0081B00249086001B0704700BF2C00FE435B
:06215C0081B001B07047E4
:1020280081B00249086001B0704700BF3010FE431C
:1020180081B00249086001B0704700BF3410FE4328
:1020480081B00249086001B0704700BF5408FE43E0
:1020380081B00249086001B0704700BF5C08FE43E8
:101FE80081B00249086001B0704700BF5808FE433D
:101FD80081B00249086001B0704700BF1820FE4375
:1020080081B00249086001B0704700BF0820FE4354
:101FF80081B00249086001B0704700BF4008FE4345
:1021200081B00249086001B0704700BF4408FE4317
:1021100081B00249086001B0704700BF3000FE4343
:10214C0081B00249086001B0704700BF2C00FE430B
:1021300081B049F63E47C0F2000700BF00BF7F1ED6
:0C214000FDD100BF00BF00BF01B0704720
:1020880081B0026806490A60011D0A6805490A60AC
:1020980000F208010A6804490A6001B0704700BFED
:0C20A8009400FF1F9800FF1F9C00FF1F0A
:1020580081B000F230011C310A6806490A6000F2BA
:1020680008010A6804490A60011D0A6803490A60F0
:1020780001B070478C00FF1F9000FF1FA000FF1FDA
:10250C0086B0CDF800E0ADF808008DF80C108DF811
:10251C0010208DF814309DF804409DF80540BDF84E
:10252C0006400020244C2468A047FFF7DDFD012065
:10253C00214C2468A047FFF7D7FDBDF80800FFF732
:10254C00B3FDADF80600040AA4B204F0FF04E4B233
:10255C008DF8054000F0FF04E4B28DF804408021B2
:10256C001820FFF775FE9DF804100020FFF770FE91
:10257C009DF805100820FFF76BFEBF211820FFF710
:10258C0067FE00211020FFF763FE9DF810509DF8A8
:10259C000C4044EA0505EDB29DF8144045EA0404EC
:1025AC00E1B21820FFF754FE03210820FFF750FE7C
:0C25BC00DDF800E006B07047A000FF1F33
:1020F40081B040F6FE07C0F23D0700BF00BF7F1E5F
:0C210400FDD100BF00BF00BF01B070475C
:1020B40081B00D4951ED000A0C4911ED000A80EE82
:1020C400201A00EE900AF8EE600AB3EE000A20EE41
:1020D400800A81EE000ABCEE400A10EE101A89B2A2
:1020E40088B201B0704700BF6C00FF1F6800FF1F7B
:10225C0082B0CDF800E001AA1070521C1170114A26
:10226C001278012A0BD1FFF70DF901AB0E4A127847
:10227C0019460123D0B20222FFF778F90DE00020B5
:10228C000A4C2468A04701AA114602220846FFF70F
:10229C002DF90120054C2468A047DDF800E002B0C0
:1022AC00704700BF5A00FF1F5B00FF1F9000FF1F0D
:1014900082B0CDF800E040F20004ADF80440064C04
:1014A0002468A047BDF9041041EA000000B2DDF84D
:0C14B00000E002B0704700BF9400FF1F76
:100EFC0081B0CDF800E00348FFF7D0FDDDF800E04D
:080F0C0001B0704700600640CF
:100AA80084B0CDF800E04FF000024349884205D1F8
:100AB80042490C6842490968039115E04149884256
:100AC80006D141490A6841490968039114460BE077
:100AD8003F49884206D13F490A683F49096803915E
:100AE800114600E011460C4601940290FFF7CAFD3A
:100AF8000298019C831C0122197862F34511197030
:100B0800C11C0A78C2F30011C9B1C31C01221978AB
:100B180062F304111970811D0A78C2F3001129B11A
:100B2800831D0122197862F304111970C31C012274
:100B3800197862F3410119704FF6FF7038E02346C7
:100B4800019404460198E11C0A78C2F3400151B9A6
:100B580040B123B90520039CA047012028E05A1E74
:100B68001346FFE7EFE7A11D0A78C2F3001129B188
:100B7800A31D0122197862F304111970E31C0122E4
:100B8800197862F34101197005462346D91C0A7881
:100B9800C2F3400159B148B125B90520039CA047CB
:100BA800012005E0691E0A461546FFE7EEE700202A
:100BB800DDF800E004B07047006006405C00FF1FED
:100BC8007400FF1F007006406000FF1F7800FF1FC1
:0C0BD80000600E406400FF1F7C00FF1F47
:10068C0082B0CDF800E04FF000021A49884205D143
:10069C0019490B6819490968019115E018498842F4
:1006AC0006D118490A6818490968019113460BE0EC
:1006BC001649884206D116490A68164909680191FB
:1006CC00114600E011460B461D4604462046FFF736
:1006DC0099FE50B943B11DB90720019CA04704E015
:1006EC00691E08460546FFE7F0E7DDF800E002B0BA
:1006FC00704700BF006006405C00FF1F7400FF1FC6
:10070C00007006406000FF1F7800FF1F00600E4065
:08071C006400FF1F7C00FF1FB9
:1004100081B0C11C0A78C2F3401181F00101C9B258
:06042000C8B201B07047F4
:100ECC0081B0CDF800E00348FFF7E8FDDDF800E065
:080EDC0001B0704700700640F0
:100EB40081B0CDF800E00348FFF7F4FDDDF800E071
:080EC40001B0704700600E4010
:100E840081B0CDF800E00348FFF7A6FFDDF800E0ED
:080E940001B0704700A0064008
:100DDC0081B0011D0A78C2F3401101B9F9E7C11DB8
:080DEC000978C8B201B070479C
:100E9C0081B0CDF800E00348FFF7F8FDDDF800E085
:080EAC0001B0704700A00640F0
:0E0A980081B0011D0978C1F3401001B0704714
:100EE40081B0CDF800E00348FFF7A6FDDDF800E08F
:080EF40001B0704700A00640A8
:0E0A3C0081B0011D0978C1F3801001B0704730
:100E0C0081B0CDF800E00348FFF7E2FFDDF800E029
:080E1C0001B0704700B0064070
:100DF40081B0CDF800E00348FFF74CFEDDF800E0D9
:080E040001B0704700B0064088
:100E240081B0CDF800E00348FFF706FEDDF800E0EE
:080E340001B0704700B0064058
:100E6C0081B0CDF800E00348FFF7B2FFDDF800E0F9
:080E7C0001B0704700C0064000
:100E540081B0CDF800E00348FFF71CFEDDF800E0A8
:080E640001B0704700C0064018
:100E3C0081B0CDF800E00348FFF7FAFDDDF800E0E3
:080E4C0001B0704700C0064030
:1011840081B0CDF800E00348FFF726FEDDF800E06B
:0811940001B0704700D00640D5
:10119C0081B0CDF800E00348FFF778FCDDF800E003
:0811AC0001B0704700D00640BD
:1011540081B0CDF800E00348FFF76EFCDDF800E055
:0811640001B0704700D0064005
:10116C0081B0CDF800E00348FFF732FEDDF800E077
:08117C0001B0704700A00E4015
:1011B40081B0CDF800E00348FFF76CFCDDF800E0F7
:0811C40001B0704700A00E40CD
:1011FC0081B0CDF800E00348FFF71AFCDDF800E001
:08120C0001B0704700A00E4084
:1012140081B0CDF800E00348FFF7DEFDDDF800E023
:0812240001B0704700B00E405C
:1011CC0081B0CDF800E00348FFF760FCDDF800E0EB
:0811DC0001B0704700B00E40A5
:1011E40081B0CDF800E00348FFF726FCDDF800E00D
:0811F40001B0704700B00E408D
:1015780082B0CDF800E040F20004ADF80440054C1C
:101588002468A047BDF90440044320B2DDF800E018
:0815980002B070479800FF1F2C
:100FB00081B0CDF800E008B413460A46C1B2044837
:100FC000FFF746FC01B0DDF800E001B0704700BF5C
:040FD0000060064077
:1008500087B0CDF800E005920246C8B20693079C27
:1008600007944FF000016C4CA24206D16B4C2668F5
:100870006B4C24680494314614E06A4CA24205D1C2
:10088000694C2668694C246804940AE0684CA242CA
:1008900006D1684C2168684C246804940E4600E038
:1008A0000E463146440001910292E1B21046FFF734
:1008B00089FE029A019920B91046FFF7B5FD002084
:1008C000A5E000273B46069CA34216D2059CE418EF
:1008D0002478019202910393E1B21046FFF772FE71
:1008E000039B0299019A20B91046FFF79DFD002055
:1008F0008DE05C1C27463B46E5E7079C012C48D170
:100900000B461046C41C2578C5F3400464B141B1C0
:1009100023B90420049CA047012078E05A1E144605
:1009200000E01C462346EDE7861C0025347865F37D
:10093000451434700A46C41C2578C5F340045CB9DC
:1009400039B122B90420049CA04701205FE0531E66
:1009500000E013461A46EEE7841D2578C5F300141F
:100960002CB1861D0125347865F304143470841D80
:100970002578C5F380142CB1861D0125347865F3E4
:1009800086143470C61C0125347865F34104347034
:100990002AE0961C0125347865F3820434700B46F6
:1009A0001046C41C2578C5F3400464B941B123B98D
:1009B0000420049CA047012029E05A1E144600E0B0
:1009C0001C462346EDE7841D2578C5F300142CB1A1
:1009D000861D0125347865F304143470C61C012586
:1009E000347865F3410434700A46C41C2578C5F395
:1009F00040045CB139B122B90420049CA047012015
:100A000005E0531E00E013461A46EEE70020DDF82D
:100A100000E007B0704700BF006006405C00FF1FA9
:100A20007400FF1F007006406000FF1F7800FF1F6A
:0C0A300000600E406400FF1F7C00FF1FF0
:1005C40082B0CDF800E04FF00003264A904205D1F6
:1005D400254A1568254A1268019215E0244A90427A
:1005E40006D1244A1368244A126801921D460BE07E
:1005F400224A904206D1224A1368224A1268019282
:100604001A4600E01A461546841C0123227863F337
:1006140004122270021D11702C462946C21C137844
:10062400C3F340025AB949B124B90420019CA0473C
:10063400012012E0621E13461C46FFE7EEE7C41CCD
:100644000123227863F341022270C21C1378C3F39E
:10065400000282F00102D2B2D0B2DDF800E002B0B2
:10066400704700BF006006405C00FF1F7400FF1F5E
:10067400007006406000FF1F7800FF1F00600E40FE
:080684006400FF1F7C00FF1F52
:1004280084B0CDF800E04FF000023549884205D18C
:1004380034490C6834490968039115E03349884206
:1004480006D133490A6833490968039114460BE019
:100458003149884206D131490A683149096803910E
:10046800114600E011460C46831C0022197862F3FD
:1004780045111970831C0022197862F30411197050
:100488000194029000F0FEF80298019C2346C11CDA
:100498000A78C2F3400151B944B123B90620039C3C
:1004A800A047012027E05A1E1346FFE7EFE7811D0A
:1004B8000A78C2F3801129B1831D0122197862F3E9
:1004C80086111970C31C0122197862F34101197051
:1004D8002346C11C0A78C2F3400159B14CB123B973
:1004E8000620039CA047012005E0591E0A46134632
:1004F800FFE7EEE70020DDF800E004B0704700BF3A
:10050800006006405C00FF1F7400FF1F007006407B
:100518006000FF1F7800FF1F00600E406400FF1F8F
:040528007C00FF1F35
:100FD40081B0CDF800E008B413460A46C1B2044813
:100FE400FFF734FC01B0DDF800E001B0704700BF4A
:040FF4000070064043
:100F140081B0CDF800E008B413460A46C1B20448D3
:100F2400FFF794FC01B0DDF800E001B0704700BFAA
:040F340000600E400B
:1014F80084B0CDF800E0ADF80C2001900291BDF861
:101508000C40BDF80C305B1EADF80C307CB1019B73
:101518001B78DCB2A0B2084C2468A047029B187064
:10152800029B5B1C0293019B5B1C0193E7E7DDF8C0
:0C15380000E004B0704700BFA400FF1FDB
:100F380081B0CDF800E01749096841F00102154970
:100F48000A6014490A686FF4406102EA010141F439
:100F5800406210490A60104A10490A6010490A683C
:100F680010490A400E490A600A490A686FF00101EF
:100F78000A4008490A6082B24FF080610548FFF7CD
:100F8800A5FE0448FFF712FF80B2DDF800E001B0CB
:100F9800704700BF00C0024000000A9A2CC00240FF
:080FA80008C00240FFFF000039
:100CD40081B000F22C044FF00043236000F234048E
:100CE40093B241EA0303236000F22C031C68C4F3AB
:0A0CF400C07303B9F8E701B07047C0
:100DB40081B000F22C010A68C2F3404101B9F8E79E
:100DC40000F2380109688BB200F22C024FF40031B2
:080DD400116098B201B07047F4
:100FF80081B0CDF800E01749096841F001021549B0
:101008000A6014490A686FF4406102EA010141F478
:10101800406210490A60104A10490A6010490A687B
:1010280010490A400E490A600A490A686FF001012E
:101038000A4008490A6082B24FF080610548FFF70C
:1010480045FE0448FFF7B2FE80B2DDF800E001B0CB
:10105800704700BF00D0024000000A9A2CD002401E
:0810680008D00240FFFF000068
:1010B80081B0CDF800E01749096841F001021549EF
:1010C8000A6014490A686FF4406102EA010141F4B8
:1010D800406210490A60104A10490A6010490A68BB
:1010E80010490A400E490A600A490A686FF001016E
:1010F8000A4008490A6082B24FF080610548FFF74C
:10110800E5FD0448FFF752FE80B2DDF800E001B0CB
:10111800704700BF00C00A4000000A9A2CC00A406D
:0811280008C00A40FFFF0000AF
:1027000083B0CDF800E08DF808001820FFF76AF9D3
:102710008DF804009DF8081001F08001C9B291B94C
:102720009DF8081001F04001C9B261B99DF8081088
:1027300001F02001C9B231B99DF8081001F0100173
:10274000C9B201B90CE0BF211820FFF787FD1020A6
:10275000FFF748F940F010011020FFF77FFD0FE070
:10276000BF211820FFF77AFD1020FFF73BF94FF645
:10277000EF7109B200EA0101C9B21020FFF76EFD46
:102780009DF804101820FFF769FD9DF80810082037
:0C279000FFF764FDDDF800E003B07047C7
:1019E40082B0CDF800E001A908701B4909780129EB
:1019F40017D1FFF74BFD01AA184909780023C8B293
:101A040011460122FFF7B6FD01AA14490978012302
:101A1400C8B211460122FFF7F3FD01A90978C8B243
:101A240015E001AA117841F08001117000200C4CDE
:101A34002468A04701A902220846FFF75BFD0120A4
:101A4400074C2468A04701A9491C0978C8B2DDF8ED
:101A540000E002B0704700BF5A00FF1F5B00FF1F89
:041A64009000FF1FD0
:1016040082B0CDF800E040F20004ADF80440044C90
:101614002468A047BDF90400DDF800E002B070477B
:041624009C00FF1F08
:1011300081B0CDF800E008B413460A46C1B20448B5
:10114000FFF750FD01B0DDF800E001B0704700BFCF
:0411500000600640F5
:100BE40085B0CDF800E08DF8041001469DF80400AE
:100BF40003920493059C05944400A4B244F00104B8
:100C040001910846E1B2FFF7DBFC019918B90846E7
:100C1400FFF708FC58E08E1C0025347865F30414B3
:100C24003470049C012C06D18E1C0125347865F3A4
:100C3400C304347005E08E1C0025347865F3C304C6
:100C4400347001910846FFF76BFD0199049C621E04
:100C5400002A34DB15E0019102920846FFF7E2FB1B
:100C6400029A019912E08E1C0125347865F3C304BD
:100C740034700BE08E1C0025347865F3C3043470A3
:100C840004E0002AE7D0012AEDD0F3E73AB90C1DBD
:100C94002578039C2570039C641C03940BE001914C
:100CA40002920846FFF73CFD029A0199039C2070CA
:100CB400039C641C0394541E23461A46C8E7059CEF
:100CC40014B90846FFF7EEFEDDF800E005B0704702
:1007240082B0CDF800E04FF000021F49884205D1A5
:100734001E490B681E490968019115E01D4988424C
:1007440006D11D490A681D490968019113460BE049
:100754001B49884206D11B490A681B490968019153
:10076400114600E011460B46011D0C781D46C11CC4
:100774000A78C2F3400159B94BB125B90320019C51
:10078400A04701200BE0691E0A461546FFE7EEE785
:10079400C31C0122197862F341011970E0B2DDF83B
:1007A40000E002B0704700BF006006405C00FF1F1D
:1007B4007400FF1F007006406000FF1F7800FF1FD9
:0C07C40000600E406400FF1F7C00FF1F5F
:1010700081B0CDF800E008B413460A46C1B2044876
:10108000FFF7B0FD01B0DDF800E001B0704700BF30
:0410900000700640A6
:1010940081B0CDF800E008B413460A46C1B2044852
:1010A400FFF79EFD01B0DDF800E001B0704700BF1E
:0410B40000600E408A
:1026DC0082B0CDF800E0017839B101780190C8B230
:1026EC00FFF780FB0198401CF5E7DDF800E002B035
:0226FC00704725
:101DF00082B0CDF800E08DF804000221082000F048
:101E00002DFA9DF80410002000F028FA064C2468F2
:101E1000A04700B1FAE70121082000F01FFADDF821
:0C1E200000E002B0704700BF8C00FF1F04
:1016280081B00248006801B0704700BF080AFE4355
:1016380081B00248006801B0704700BF2C0AFE4321
:1015D40081B00248006801B0704700BF1012FE439A
:1015E40081B00248006801B0704700BF1412FE4386
:1015F40081B00248006801B0704700BF1C12FE436E
:1014CC0081B00248006801B0704700BF1812FE439B
:1014100081B00248006801B0704700BF2802FE4357
:1014200081B00248006801B0704700BF340AFE4333
:1014300081B00248006801B0704700BF081AFE433F
:1013E00081B00248006801B0704700BF0C1AFE438C
:1013F00081B00248006801B0704700BF201AFE4368
:1014000081B00248006801B0704700BF241AFE4353
:1014400081B00248006801B0704700BF0C0AFE433B
:1014BC0081B00248006801B0704700BF4C0AFE437F
:1014500081B00248006801B0704700BF101AFE4317
:1014600081B00248006801B0704700BF141AFE4303
:1014700081B00248006801B0704700BF1C1AFE43EB
:1014800081B00248006801B0704700BF181AFE43DF
:1016480081B00248006801B0704700BF0812FE432D
:1017880081B00248006801B0704700BF200AFE43DC
:1017780081B00248006801B0704700BF4012FE43C4
:1017A80081B00248006801B0704700BF4412FE4390
:1017980081B00248006801B0704700BF2812FE43BC
:1017480081B00248006801B0704700BF2C12FE4308
:0817400081B0012001B07047E7
:1017680081B00248006801B0704700BF2012FE43F4
:1017580081B00248006801B0704700BF2412FE4300
:1017B80081B00248006801B0704700BF540AFE4378
:1017C80081B00248006801B0704700BF5C0AFE4360
:1017D80081B00248006801B0704700BF580AFE4354
:1017E80081B00248006801B0704700BF1422FE4370
:1018080081B00248006801B0704700BF0422FE435F
:1017F80081B00248006801B0704700BF400AFE434C
:1017300081B00248006801B0704700BF440AFE4310
:1016980081B00248006801B0704700BF3002FE43C5
:1016A80081B00248006801B0704700BF2C02FE43B9
:0816B80081B0012001B0704770
:1016880081B00248006801B0704700BF3012FE43C5
:1016580081B00248006801B0704700BF3412FE43F1
:1016680081B00248006801B0704700BF540AFE43C9
:1016780081B00248006801B0704700BF5C0AFE43B1
:1017000081B00248006801B0704700BF580AFE432C
:1017100081B00248006801B0704700BF1822FE4344
:1017200081B00248006801B0704700BF0822FE4344
:1016F00081B00248006801B0704700BF400AFE4355
:1016C00081B00248006801B0704700BF440AFE4381
:1016D00081B00248006801B0704700BF3002FE438D
:1016E00081B00248006801B0704700BF2C02FE4381
:1027B00083B0CDF800E00020ADF80400BDF80400BF
:1027C0000A2817D20DF106000146BDF80400FFF7F4
:1027D000FBFE0DF10600FFF73FFF0DF10600FFF7CE
:1027E0007DFF0D48FFF77AFFBDF80400401CADF8EF
:1027F0000400E3E70948FFF771FF0948FFF76EFFA0
:102800000020FFF713FFFFF707FFFFF70FFFFAE7BF
:10281000DDF800E003B070472A00FF1F2D00FF1F06
:042820004500FF1F51
:1025C80081B00A4681B200208DB21146052805D295
:1025D8000B1820221A70401CC0B2F7E70B18002213
:1025E8001A70401EC0B20C180A23B5FBF3F203FBA5
:1025F800125292B2303222700A22B5FBF2F292B233
:1026080095B202B902E0401EC0B2ECE701B07047D3
:1026580081B0014640F200052DB208460C460B46F3
:10266800FFE70178202901D105B904E001252DB241
:1026780001782170641C0246401C11780029F0D1B1
:06268800184601B0704786
:10262C0081B0CDF800E0C1B20020FFF711FE064CDE
:10263C002468A04700B1FAE701210820FFF708FE43
:0C264C00DDF800E001B070478C00FF1FBB
:1026180081B0CDF800E00020FFF7E0F9DDF800E038
:0426280001B0704746
:1029980090B072B697480190974802909748039074
:1029A800974804909748059097480690974807904D
:1029B800974808909748099097480A9097480B902D
:1029C80097480C90974998480D9098480E900D9804
:1029D80000F007000F9001F0010050B94CF22050B0
:1029E800934908804DF62810088040F2D21191488A
:1029F80001809148007800F0010050B18F480078BC
:102A080000F0080020B18D49087840F008000870EF
:102A180021E08B48006840F00051894801608948EE
:102A2800006800F48070B0B9864801686FF470508F
:102A380001EA000040F44071824801608148006862
:102A480040F480717F4801607E4801686FF400702F
:102A580001407C480160AA217B4801700D9800F074
:102A6800100060B9794801786FF06000014077483C
:102A7800017077480078012800D0FAE71CE00D982B
:102A880000F01000C0B10E997248814208D9602147
:102A98006E4801706E480078802800D0FAE70BE095
:102AA8006A4801786FF06000014068480170684822
:102AB8000078012800D0FAE7049967480160674860
:102AC80001686FF440200140029800F4402001435F
:102AD80062480160624801686FF440300140039821
:102AE80000F4403001435E4801600F9830B10F9800
:102AF800012803D00F98022800D061E0019800F067
:102B0800800050B9089800F0400028B10B9800F0F8
:102B18000300002800D100E015E05248006840F4A6
:102B280000715048016050480168504801404E48C3
:102B38000160069800F0040028B14D4801684B4830
:102B480001404B4801600A994A48017005994A4872
:102B58000170059800F0040038B14848007800F08A
:102B68001000002800D1F8E705E04448007800F09C
:102B7800100000B1F9E74248007800F0BF01C9B27F
:102B8800069800F0FD0001433D480170079800F0E9
:102B9800E0013C48007800F01F000143394801700B
:102BA8000199394801700B99384801700F9802282B
:102BB80005D13348007840F0020131480170B8E08F
:102BC800019800F0800020B90B9800F0030000B1D4
:102BD80065E02448006840F40071224801602248FA
:102BE80001682248014020480160069800F004006E
:102BF80000F04EB80000000000000C0000000100CA
:102C08000000140122000000240000000000000061
:102C18000200000046000000000000000000000064
:102C2800000000000000000007000000C0D4010000
:102C38000E2005400020054000F0074002D0074064
:102C48003C80044010D0034000E0074001E007400A
:102C580003E00740803801004480044000700440CD
:102C6800048004403880044048900440FFF8FFFE88
:102C78004C9004400840064000400640064006408C
:102C88000140064003400640005006400C40064004
:102C980028B17A4801687A480140784801600A9961
:102CA800784801707848007800F0BF01C9B20698EA
:102CB80000F0FD00014374480170019973480170E8
:102CC8000B99734801700F98072805D1059840F0B3
:102CD80080017048017002E005996E4801700698FD
:102CE80000F0040048B10B9800F0030028B96A48C6
:102CF800007800F0020000B9F9E7059800F0040038
:102D080038B16548007800F01000002800D1F8E7D5
:102D180005E06148007800F0100000B1F9E7079875
:102D280000F0E0015D48007800F01F0001435B48B7
:102D38000170089800F0BF0159480170099800F027
:102D4800BF0158480170089800F0400028B1544865
:102D5800007840F04001524801700F98052806D1CC
:102D68004948007840F00201474801701BE00F987D
:102D7800062803D00F98072800D014E049480078A7
:102D880040F04001474801704348007800F0400097
:102D980000B9F9E70F98072805D13E48007800F0F8
:102DA8003F013C4801700F9818B10F98032800D0D4
:102DB8002CE03948007800F00C0000B1F9E73A48F7
:102DC800006840F00101384801604FF000013748C1
:102DD80001604FF08001364801604FF00501354829
:102DE80001604FF00101324801603148006800F08D
:102DF800800000B9F9E700212D4801602A480168E0
:102E08006FF001000140284801602AE00F9801286E
:102E180003D00F98022800D007E01F48007800F080
:102E28000C00042800D0F8E71BE00F98042806D00F
:102E38000F98062803D00F98052800D007E01648F9
:102E4800007800F00C00082800D0F8E709E00F9897
:102E5800072806D11048007800F00C000C2800D094
:102E6800F8E7154801686FF00F0001400C9800F072
:102E78000F0001431048016010B070474C900440A7
:102E8800FFF8FFFE0840064001400640005006409B
:102E98000C400640004006400640064003400640FD
:102EA80004400640054006403880044008000440BD
:0C2EB80000000440040004404880044076
:10295C0081B002490248016001B07047C0D4010047
:04296C007000FF1FD9
:0829280081B0FEE701B0704729
:1029300081B072B60849086840F47000086000BFB2
:1029400000BF00BF00BFF1EE100A40F44000E1EE0E
:0C295000100A62B601B0704788ED00E08C
:1032780000B5DFF824B0DFF824A0DFF824C0FFF79A
:1032880089FADFF820B0DFF820A0DFF820C0FFF7C8
:1032980081FA00BD704700BF0000FF1F5A00FF1FE2
:1032A800F83100005C00FF1F7000FF1F543200005F
:1033140000B5DFF810B0DFF810A0FFF7E5FA00BD44
:0C332400704700BF0000FF1FA800FF1F43
:100400000000000000000000FFFFFFFF02FDFFFFF3
:102EC40000000000140000000100000016000000D3
:102ED4000200000018000000030000001A000000B7
:102EE400040000001C000000050000001E0000009B
:102EF400090000002000000006000000220000007D
:102F04000A00000024000000070000002800000060
:102F14000C0000002C000000100000003000000035
:102F24001100000038000000120000004000000002
:102F34000F000000440000001300000048000000DF
:102F440014000000500000001500000058000000AC
:102F54001900000060000000160000006800000076
:102F64001A0000007000000017000000800000003C
:102F74001C000000900000001D000000A0000000E4
:102F84001E000000C000000022000000E00000005D
:102F94001F000000F00000002300000000010000FA
:102FA4002400000020010000250000004001000072
:102FB40026000000800100002A000000C00100007B
:102FC40027000000E00100002B00000000020000C8
:102FD4002C000000400200002D00000080020000D0
:102FE4002E000000000300003200000080030000F7
:102FF4002F000000C00300003300000000040000A4
:1030040034000000800400003500000000050000CA
:1030140036000000000600003A000000000700002F
:1030240037000000800700003B000000000800009B
:103034003C000000000900003D000000000A000000
:103044003E000000000C00003F000000000F0000E4
:103054006802000069020000FFFFFFFF000000009B
:10306400000000000000000000000000000000005C
:10307400000000000000000000000000000000004C
:10308400000000000000080000000800FFFFFFFF30
:10309400000000000000000000000000000000002C
:1030A400000000000000000000000000000000001C
:0C30B40000000000000000000000000010
:1030C0004A0200004B020000FFFFFFFF000000006B
:1030D00000000000000000000000000000000000F0
:1030E00000000000000000000000000000000000E0
:1030F000000000000000080000000800FFFFFFFFC4
:1031000000000000000000000000000000000000BF
:1031100000000000000000000000000000000000AF
:0C312000000000000000000000000000A3
:10312C000C0500000B050000FFFFFFFF0000000076
:10313C000000000000000000000000000000000083
:10314C000000000000000000000000000000000073
:10315C00000000000000080000000800FFFFFFFF57
:10316C000000000000000000000000000000000053
:10317C000000000000000000000000000000000043
:0C318C0000000000000000000000000037
:103198009D2300008D2300007D230000DD22000018
:1031A800CD220000BD2200000D230000FD220000FA
:1031B800ED2200004D2400003D2400002D240000D5
:1031C8002916000039160000D5150000E515000085
:1031D800F5150000CD1400001114000021140000A2
:1031E80031140000E1130000F11300000114000085
:1031F80055415254205350492F49324320636C693A
:10320800636B0D0A0053797374656D20696E697478
:0A32180069616C697A65640D0A00B3
:103222000D0A002B2B2B2B2B2B2B2B2B2B2B2B2B56
:103232002B2B2B2B2B2B2B2B0D0A00456E7465721F
:10324200696E67206563686F206D6F64650D0A00A3
:043254000000000076
:043258000000000072
:04325C00000000006E
:043260000000E14940
:043264000000803FA7
:0C326800FD0E0000B10F0000311100004D
:04327400801A0600B6
:00000001FF
